:030000000208B142
:0C08B100787FE4F6D8FD7581200208F87D
:100A8D00040A090C06030109000108000211000007
:0D0A9D00021300C8011000020E0000C1018C
:040A23007F147E00BE
:100A2700E4FDFCC3ED9FEC9E5015E4FBFA0BBB0005
:0F0A3700010ABA04F8BBFBF50DBD00010C80E409
:010A4600228D
:100A4700D2A6C2A7900000200114D294C2957F0AB3
:100A57007E00120A27A3E5826478458370E9C29471
:020A6700C29536
:010A6900226A
:100A6A00C2A6D2A7900000200114C294D2957F0A90
:100A7A007E00120A27A3E5826478458370E9C2944E
:020A8A00C29513
:010A8C002247
:100AAB00300206740A25168007C374039516240AB0
:0B0ABB00F8E6F5B07F057E00020A2778
:100800008F15E515650970030208B0E515D3950944
:100810004007E5159509FF8006C3E5099515FF7E9C
:1008200000AC13AD141209BC8E0E8F0FE515D395D5
:10083000094003D38001C39200E4F510F511F512CD
:10084000850908C3E512950FE511950E50402097D4
:1008500004D2018039A2009202851016120AABE57B
:1008600010045403F5100512E51270020511AC13C3
:10087000AD14AE11FF1209CEED4C70C7E508300083
:100880000404FF800214FF8F088508A080B52001B2
:1008900016851509E4F5B08509A0120A477FE87EA0
:1008A00003120A27020A6A8508098509A0E4F5B03F
:0108B0002225
:10093D00E4F5A0C294C295C2A6D2A7C2A5C2012059
:10094D009722D201E4F5B0C294C295209710D2A59A
:10095D007FC87E00120A27C2A5120A2780EDC201A8
:10096D00C2A580DBC20120930E120A23209308E456
:10097D00FF1208003093FD20920E120A23209208D8
:10098D007F011208003092FD20910E120A23209152
:10099D00087F021208003091FD20900E120A2320CC
:0F09AD0090087F031208003090FD8509A080900C
:1008BD0002093DE493A3F8E493A34003F68001F20B
:1008CD0008DFF48029E493A3F85407240CC8C3333C
:1008DD00C4540F4420C8834004F456800146F6DF0B
:1008ED00E4800B0102040810204080900A8DE47E04
:1008FD00019360BCA3FF543F30E509541FFEE49300
:10090D00A360010ECF54C025E060A840B8E493A3C6
:10091D00FAE493A3F8E493A3C8C582C8CAC583CAF1
:10092D00F0A3C8C582C8CAC583CADFE9DEE780BEA9
:010AAA00004B
:1009BC00EF8DF0A4A8F0CF8CF0A428CE8DF0A42E4F
:0209CC00FE2209
:1009CE00BC000BBE0029EF8DF084FFADF022E4CC0D
:1009DE00F875F008EF2FFFEE33FEEC33FCEE9DECD6
:1009EE00984005FCEE9DFE0FD5F0E9E4CEFD22ED1C
:1009FE00F8F5F0EE8420D21CFEADF075F008EF2F66
:100A0E00FFED33FD4007985006D5F0F222C398FD56
:050A1E000FD5F0EA22F3
:00000001FF
